{
  "contractName": "OfferLetterContract",
  "abi": [
    {
      "anonymous": false,
      "inputs": [
        {
          "indexed": false,
          "internalType": "string",
          "name": "offerLetterId",
          "type": "string"
        },
        {
          "indexed": false,
          "internalType": "string",
          "name": "employer",
          "type": "string"
        },
        {
          "indexed": false,
          "internalType": "string",
          "name": "candidate",
          "type": "string"
        },
        {
          "indexed": false,
          "internalType": "string",
          "name": "offerHash",
          "type": "string"
        },
        {
          "indexed": false,
          "internalType": "string",
          "name": "uniqueURL",
          "type": "string"
        }
      ],
      "name": "OfferLetterCreated",
      "type": "event"
    },
    {
      "inputs": [
        {
          "internalType": "string",
          "name": "offerLetterId",
          "type": "string"
        },
        {
          "internalType": "string",
          "name": "employer",
          "type": "string"
        },
        {
          "internalType": "string",
          "name": "candidate",
          "type": "string"
        },
        {
          "internalType": "string",
          "name": "salary",
          "type": "string"
        },
        {
          "internalType": "string",
          "name": "position",
          "type": "string"
        },
        {
          "internalType": "string",
          "name": "date",
          "type": "string"
        }
      ],
      "name": "createOfferLetter",
      "outputs": [],
      "stateMutability": "nonpayable",
      "type": "function"
    },
    {
      "inputs": [
        {
          "internalType": "string",
          "name": "offerLetterId",
          "type": "string"
        }
      ],
      "name": "queryOfferLetter",
      "outputs": [
        {
          "internalType": "string",
          "name": "employer",
          "type": "string"
        },
        {
          "internalType": "string",
          "name": "candidate",
          "type": "string"
        },
        {
          "internalType": "string",
          "name": "salary",
          "type": "string"
        },
        {
          "internalType": "string",
          "name": "position",
          "type": "string"
        },
        {
          "internalType": "string",
          "name": "date",
          "type": "string"
        },
        {
          "internalType": "string",
          "name": "offerHash",
          "type": "string"
        },
        {
          "internalType": "string",
          "name": "uniqueURL",
          "type": "string"
        }
      ],
      "stateMutability": "view",
      "type": "function",
      "constant": true
    },
    {
      "inputs": [
        {
          "internalType": "string",
          "name": "offerLetterId",
          "type": "string"
        },
        {
          "internalType": "string",
          "name": "offerHash",
          "type": "string"
        }
      ],
      "name": "verifyOfferHash",
      "outputs": [
        {
          "internalType": "bool",
          "name": "",
          "type": "bool"
        }
      ],
      "stateMutability": "view",
      "type": "function",
      "constant": true
    }
  ],
  "bytecode": "0x60806040523461001f57610011610024565b61146961002f823961146990f35b61002a565b60405190565b5f80fdfe60806040526004361015610013575b610494565b61001d5f3561004c565b806351a46519146100475780635ac1308e146100425763ac5a27220361000e57610458565b610305565b610247565b60e01c90565b60405190565b5f80fd5b5f80fd5b5f80fd5b5f80fd5b5f80fd5b601f801991011690565b634e487b7160e01b5f52604160045260245ffd5b906100949061006c565b810190811067ffffffffffffffff8211176100ae57604052565b610076565b906100c66100bf610052565b928361008a565b565b67ffffffffffffffff81116100e6576100e260209161006c565b0190565b610076565b90825f939282370152565b9092919261010b610106826100c8565b6100b3565b9381855260208501908284011161012757610125926100eb565b565b610068565b9080601f8301121561014a57816020610147933591016100f6565b90565b610064565b9160c08383031261023d575f83013567ffffffffffffffff8111610238578261017991850161012c565b92602081013567ffffffffffffffff8111610233578361019a91830161012c565b92604082013567ffffffffffffffff811161022e57816101bb91840161012c565b92606083013567ffffffffffffffff811161022957826101dc91850161012c565b92608081013567ffffffffffffffff811161022457836101fd91830161012c565b9260a082013567ffffffffffffffff811161021f5761021c920161012c565b90565b610060565b610060565b610060565b610060565b610060565b610060565b61005c565b5f0190565b3461027c5761026661025a36600461014f565b94939093929192610a67565b61026e610052565b8061027881610242565b0390f35b610058565b9190916040818403126102d9575f81013567ffffffffffffffff81116102d457836102ad91830161012c565b92602082013567ffffffffffffffff81116102cf576102cc920161012c565b90565b610060565b610060565b61005c565b151590565b6102ec906102de565b9052565b9190610303905f602085019401906102e3565b565b346103365761033261032161031b366004610281565b90610f13565b610329610052565b918291826102f0565b0390f35b610058565b9060208282031261036b575f82013567ffffffffffffffff811161036657610363920161012c565b90565b610060565b61005c565b5190565b60209181520190565b5f5b83811061038f575050905f910152565b80602091830151818501520161037f565b6103bf6103c86020936103cd936103b681610370565b93848093610374565b9586910161037d565b61006c565b0190565b95926104479461041d61042b9261040f610439966104008c6104559e9c9860e08201915f8184039101526103a0565b908c60208184039101526103a0565b908a820360408c01526103a0565b9088820360608a01526103a0565b9086820360808801526103a0565b9084820360a08601526103a0565b9160c08184039101526103a0565b90565b3461048f5761048b61047361046e36600461033b565b610e6e565b93610482979597939193610052565b978897886103d1565b0390f35b610058565b5f80fd5b905090565b6104c26104b9926020926104b081610370565b94858093610498565b9384910161037d565b0190565b90565b90565b6104d86104dd916104c6565b6104c9565b9052565b6104f16104f8916020949361049d565b80926104cc565b0190565b610510610507610052565b928392836104e1565b03902090565b61051f916104fc565b90565b5f1c90565b60ff1690565b61053961053e91610522565b610527565b90565b61054b905461052d565b90565b5f7f4f66666572206c657474657220494420616c7265616479206578697374730000910152565b610582601e602092610374565b61058b8161054e565b0190565b6105a49060208101905f818303910152610575565b90565b156105ae57565b6105b6610052565b62461bcd60e51b8152806105cc6004820161058f565b0390fd5b926105f06106029695936105ea6105fc966105f69561049d565b9061049d565b9061049d565b9061049d565b9061049d565b90565b90565b6106119161049d565b90565b60200190565b5190565b5f7f68747470733a2f2f636f6d70616e792e636f6d2f6f666665722f000000000000910152565b610651601a8092610498565b61065a8161061e565b0190565b9061066b61067192610645565b9061049d565b90565b61067f6101006100b3565b90565b52565b61068e916104fc565b90565b5190565b634e487b7160e01b5f52602260045260245ffd5b90600160028304921680156106c9575b60208310146106c457565b610695565b91607f16916106b9565b5f5260205f2090565b601f602091010490565b1b90565b919060086107059102916106ff5f19846106e6565b926106e6565b9181191691161790565b90565b61072661072161072b926104c6565b61070f565b6104c6565b90565b90565b919061074761074261074f93610712565b61072e565b9083546106ea565b9055565b5f90565b61076991610763610753565b91610731565b565b5b818110610777575050565b806107845f600193610757565b0161076c565b9190601f811161079a575b505050565b6107a66107cb936106d3565b9060206107b2846106dc565b830193106107d3575b6107c4906106dc565b019061076b565b5f8080610795565b91506107c4819290506107bb565b1c90565b906107f5905f19906008026107e1565b191690565b81610804916107e5565b906002021790565b9061081681610370565b9067ffffffffffffffff82116108d65761083a8261083485546106a9565b8561078a565b602090601f831160011461086e5791809161085d935f92610862575b50506107fa565b90555b565b90915001515f80610856565b601f1983169161087d856106d3565b925f5b8181106108be575091600293918560019694106108a4575b50505002019055610860565b6108b4910151601f8416906107e5565b90555f8080610898565b91936020600181928787015181550195019201610880565b610076565b906108e59161080c565b565b906109a860e060076109ae9461090a5f82016109045f8801610691565b906108db565b6109236001820161091d60208801610691565b906108db565b61093c6002820161093660408801610691565b906108db565b6109556003820161094f60608801610691565b906108db565b61096e6004820161096860808801610691565b906108db565b6109876005820161098160a08801610691565b906108db565b6109a06006820161099a60c08801610691565b906108db565b019201610691565b906108db565b565b906109ba916108e7565b565b5f1b90565b906109cd60ff916109bc565b9181191691161790565b6109e0906102de565b90565b90565b906109fb6109f6610a02926109d7565b6109e3565b82546109c1565b9055565b9390610a649593610a3a610a5694610a2c610a489460a08a01908a82035f8c01526103a0565b9088820360208a01526103a0565b9086820360408801526103a0565b9084820360608601526103a0565b9160808184039101526103a0565b90565b9091929493600182610a7891610516565b610a8190610541565b15610a8b906102de565b610a94906105a7565b82848791838890610aa3610052565b9485946020860194610ab4956105d0565b602082018103825203610ac7908261008a565b610ad090610605565b610ad8610052565b80916020820190610ae891610608565b602082018103825203610afb908261008a565b610b048161061a565b90610b0e90610614565b20610b18906112d7565b9482610b22610052565b80916020820190610b329161065e565b602082018103825203610b45908261008a565b610b4e90610605565b9683928592879291909189938b95610b64610674565b975f890190610b7291610682565b6020880190610b8091610682565b6040870190610b8e91610682565b6060860190610b9c91610682565b6080850190610baa91610682565b60a0840190610bb891610682565b60c0830190610bc691610682565b60e0820190610bd491610682565b5f82610bdf91610685565b90610be9916109b0565b60018082610bf691610516565b90610c00916109e6565b909192937f8e0fdadc4d79c06072bfaf16a1164e29ee1d0ff6ba077684bdeea32bd872517d94610c2e610052565b948594610c3b9486610a06565b0390a1565b606090565b5f7f4f66666572206c657474657220494420646f6573206e6f742065786973740000910152565b610c79601e602092610374565b610c8281610c45565b0190565b610c9b9060208101905f818303910152610c6c565b90565b15610ca557565b610cad610052565b62461bcd60e51b815280610cc360048201610c86565b0390fd5b60209181520190565b905f9291805490610cea610ce3836106a9565b8094610cc7565b916001811690815f14610d415750600114610d05575b505050565b610d1291929394506106d3565b915f925b818410610d2957505001905f8080610d00565b60018160209295939554848601520191019290610d16565b92949550505060ff19168252151560200201905f8080610d00565b90610d6691610cd0565b90565b90610d89610d8292610d79610052565b93848092610d5c565b038361008a565b565b610d966101006100b3565b90565b90610e60610e576007610daa610d8b565b94610dc1610db95f8301610d69565b5f8801610682565b610dd9610dd060018301610d69565b60208801610682565b610df1610de860028301610d69565b60408801610682565b610e09610e0060038301610d69565b60608801610682565b610e21610e1860048301610d69565b60808801610682565b610e39610e3060058301610d69565b60a08801610682565b610e51610e4860068301610d69565b60c08801610682565b01610d69565b60e08401610682565b565b610e6b90610d99565b90565b610ed6610edb91610e7d610c40565b50610e86610c40565b50610e8f610c40565b50610e98610c40565b50610ea1610c40565b50610eaa610c40565b50610eb3610c40565b50610ed0610ecb610ec660018490610516565b610541565b610c9e565b5f610685565b610e62565b602081015160408201519260608301519260808101519260a08201519260e060c08401519301519196959493929190565b5f90565b90565b610fd2610fab610fba610f74610f8360c0610f5e610f59610fd898610f36610f0c565b50610f53610f4e610f4960018490610516565b610541565b610c9e565b5f610685565b610e62565b0151610f68610052565b92839160208301610608565b6020820181038252038261008a565b610f95610f8f8261061a565b91610614565b2094610f9f610052565b92839160208301610608565b6020820181038252038261008a565b610fcc610fc68261061a565b91610614565b20610f10565b91610f10565b1490565b90610fee610fe9836100c8565b6100b3565b918252565b5f7f3031323334353637383961626364656600000000000000000000000000000000910152565b6110246010610fdc565b9061103160208301610ff3565b565b61103b61101a565b90565b90565b61105561105061105a9261103e565b61070f565b6104c6565b90565b67ffffffffffffffff811161107b5761107760209161006c565b0190565b610076565b9061109261108d8361105d565b6100b3565b918252565b369037565b906110c16110a983611080565b926020806110b7869361105d565b9201910390611097565b565b90565b6110da6110d56110df926110c3565b61070f565b6104c6565b90565b634e487b7160e01b5f52601160045260245ffd5b6110ff906104c6565b5f19811461110d5760010190565b6110e2565b90565b61112961112461112e92611112565b61070f565b6104c6565b90565b634e487b7160e01b5f52603260045260245ffd5b60f81b90565b90565b60ff1690565b61116861116361116d9261114b565b61070f565b61114e565b90565b60ff60f81b1690565b6111989061119261118c61119d9461114e565b91611170565b906107e1565b611170565b90565b60f81c90565b6111ba6111b56111bf9261114e565b61070f565b61114e565b90565b6111ce6111d3916111a0565b6111a6565b90565b906111e08261061a565b8110156111f257600160209102010190565b611131565b61120b6112066112109261114e565b61070f565b6104c6565b90565b61121d9051611170565b90565b90565b61123761123261123c92611220565b61070f565b6104c6565b90565b61124e611254919392936104c6565b926104c6565b916112608382026104c6565b92818404149015171561126f57565b6110e2565b90565b61128b61128661129092611274565b611145565b611170565b90565b90565b6112aa6112a56112af92611293565b61070f565b6104c6565b90565b6112c16112c7919392936104c6565b926104c6565b82018092116112d257565b6110e2565b906112e0610c40565b506112e9611033565b6112fb6112f66040611041565b61109c565b906113055f6110c6565b5b8061131a6113146020611115565b916104c6565b1015611423578185908290602082101561141e5761136261135d61135861134861136d96611368961a611145565b6113526004611154565b90611179565b6111c2565b6111f7565b906111d6565b611213565b61138f8491611386846113806002611223565b9061123f565b905f1a926111d6565b538190858190602082101561141957611414936113ce6113c96113b96113d4946113d9961a611145565b6113c3600f611277565b166111c2565b6111f7565b906111d6565b611213565b61140e859161140560016114006113fa876113f46002611223565b9061123f565b91611296565b6112b2565b905f1a926111d6565b536110f6565b611306565b611131565b611131565b5050611430919250610605565b9056fea2646970667358221220a51c953550fd22ac500ff0dd6f1b6dcd1ef4da32a863cec09905b6db3f39ae6864736f6c63430008150033",
  "immutableReferences": {},
  "source": "// SPDX-License-Identifier: MIT\r\npragma solidity ^0.8.0;\r\n\r\ncontract OfferLetterContract {\r\n    struct OfferLetter {\r\n        string offerLetterId;\r\n        string employer;\r\n        string candidate;\r\n        string salary;\r\n        string position;\r\n        string date;\r\n        string offerHash;\r\n        string uniqueURL;\r\n    }\r\n\r\n    mapping(string => OfferLetter) private offerLetters;\r\n    mapping(string => bool) private offerLetterExists;\r\n\r\n    event OfferLetterCreated(string offerLetterId, string employer, string candidate, string offerHash, string uniqueURL);\r\n\r\n    function createOfferLetter(\r\n        string memory offerLetterId,\r\n        string memory employer,\r\n        string memory candidate,\r\n        string memory salary,\r\n        string memory position,\r\n        string memory date\r\n    ) public {\r\n        require(!offerLetterExists[offerLetterId], \"Offer letter ID already exists\");\r\n\r\n        // Create offer hash\r\n        string memory offerDetails = string(abi.encodePacked(employer, candidate, salary, position, date));\r\n        bytes32 offerHashBytes = keccak256(abi.encodePacked(offerDetails));\r\n        string memory offerHash = toHexString(offerHashBytes);\r\n\r\n        // Generate unique URL\r\n        string memory uniqueURL = string(abi.encodePacked(\"https://company.com/offer/\", offerLetterId));\r\n\r\n        OfferLetter memory newOfferLetter = OfferLetter({\r\n            offerLetterId: offerLetterId,\r\n            employer: employer,\r\n            candidate: candidate,\r\n            salary: salary,\r\n            position: position,\r\n            date: date,\r\n            offerHash: offerHash,\r\n            uniqueURL: uniqueURL\r\n        });\r\n\r\n        offerLetters[offerLetterId] = newOfferLetter;\r\n        offerLetterExists[offerLetterId] = true;\r\n\r\n        emit OfferLetterCreated(offerLetterId, employer, candidate, offerHash, uniqueURL);\r\n    }\r\n\r\n    function queryOfferLetter(string memory offerLetterId)\r\n        public\r\n        view\r\n        returns (\r\n            string memory employer,\r\n            string memory candidate,\r\n            string memory salary,\r\n            string memory position,\r\n            string memory date,\r\n            string memory offerHash,\r\n            string memory uniqueURL\r\n        )\r\n    {\r\n        require(offerLetterExists[offerLetterId], \"Offer letter ID does not exist\");\r\n\r\n        OfferLetter memory offerLetter = offerLetters[offerLetterId];\r\n        return (\r\n            offerLetter.employer,\r\n            offerLetter.candidate,\r\n            offerLetter.salary,\r\n            offerLetter.position,\r\n            offerLetter.date,\r\n            offerLetter.offerHash,\r\n            offerLetter.uniqueURL\r\n        );\r\n    }\r\n\r\n    function verifyOfferHash(string memory offerLetterId, string memory offerHash) public view returns (bool) {\r\n        require(offerLetterExists[offerLetterId], \"Offer letter ID does not exist\");\r\n\r\n        OfferLetter memory offerLetter = offerLetters[offerLetterId];\r\n        return (keccak256(abi.encodePacked(offerLetter.offerHash)) == keccak256(abi.encodePacked(offerHash)));\r\n    }\r\n\r\n    function toHexString(bytes32 data) internal pure returns (string memory) {\r\n        bytes memory alphabet = \"0123456789abcdef\";\r\n        bytes memory str = new bytes(64);\r\n        for (uint256 i = 0; i < 32; i++) {\r\n            str[i * 2] = alphabet[uint8(data[i] >> 4)];\r\n            str[1 + i * 2] = alphabet[uint8(data[i] & 0x0f)];\r\n        }\r\n        return string(str);\r\n    }\r\n}",
  "sourcePath": "C:\\Users\\sambi\\Desktop\\Hack4Bengal\\CertiChain\\smart-contracts\\contracts\\OfferLetterContract.sol",
  "compiler": {
    "name": "solc",
    "version": "0.8.21+commit.d9974bed.Emscripten.clang"
  },
  "schemaVersion": "3.4.16",
  "updatedAt": "2024-06-29T21:39:01.775Z",
  "networkType": "ethereum",
  "devdoc": {
    "kind": "dev",
    "methods": {},
    "version": 1
  },
  "userdoc": {
    "kind": "user",
    "methods": {},
    "version": 1
  }
}