{
    "contractName": "OfferLetterContract",
    "abi": [
        {
            "anonymous": false,
            "inputs": [
                {
                    "indexed": false,
                    "internalType": "string",
                    "name": "offerLetterId",
                    "type": "string"
                },
                {
                    "indexed": false,
                    "internalType": "string",
                    "name": "employer",
                    "type": "string"
                },
                {
                    "indexed": false,
                    "internalType": "string",
                    "name": "candidate",
                    "type": "string"
                },
                {
                    "indexed": false,
                    "internalType": "string",
                    "name": "offerHash",
                    "type": "string"
                },
                {
                    "indexed": false,
                    "internalType": "string",
                    "name": "uniqueURL",
                    "type": "string"
                }
            ],
            "name": "OfferLetterCreated",
            "type": "event"
        },
        {
            "inputs": [
                {
                    "internalType": "string",
                    "name": "offerLetterId",
                    "type": "string"
                },
                {
                    "internalType": "string",
                    "name": "employer",
                    "type": "string"
                },
                {
                    "internalType": "string",
                    "name": "candidate",
                    "type": "string"
                },
                {
                    "internalType": "string",
                    "name": "salary",
                    "type": "string"
                },
                {
                    "internalType": "string",
                    "name": "position",
                    "type": "string"
                },
                {
                    "internalType": "string",
                    "name": "date",
                    "type": "string"
                }
            ],
            "name": "createOfferLetter",
            "outputs": [],
            "stateMutability": "nonpayable",
            "type": "function"
        },
        {
            "inputs": [
                {
                    "internalType": "string",
                    "name": "offerLetterId",
                    "type": "string"
                }
            ],
            "name": "queryOfferLetter",
            "outputs": [
                {
                    "internalType": "string",
                    "name": "employer",
                    "type": "string"
                },
                {
                    "internalType": "string",
                    "name": "candidate",
                    "type": "string"
                },
                {
                    "internalType": "string",
                    "name": "salary",
                    "type": "string"
                },
                {
                    "internalType": "string",
                    "name": "position",
                    "type": "string"
                },
                {
                    "internalType": "string",
                    "name": "date",
                    "type": "string"
                },
                {
                    "internalType": "string",
                    "name": "offerHash",
                    "type": "string"
                },
                {
                    "internalType": "string",
                    "name": "uniqueURL",
                    "type": "string"
                }
            ],
            "stateMutability": "view",
            "type": "function",
            "constant": true
        },
        {
            "inputs": [
                {
                    "internalType": "string",
                    "name": "offerLetterId",
                    "type": "string"
                },
                {
                    "internalType": "string",
                    "name": "offerHash",
                    "type": "string"
                }
            ],
            "name": "verifyOfferHash",
            "outputs": [
                {
                    "internalType": "bool",
                    "name": "",
                    "type": "bool"
                }
            ],
            "stateMutability": "view",
            "type": "function",
            "constant": true
        }
    ],
    "bytecode": "0x608060405234801561001057600080fd5b50611cc3806100206000396000f3fe608060405234801561001057600080fd5b506004361061005e576000357c01000000000000000000000000000000000000000000000000000000009004806351a46519146100635780635ac1308e1461007f578063ac5a2722146100af575b600080fd5b61007d600480360381019061007891906112de565b6100e5565b005b61009960048036038101906100949190611413565b61036b565b6040516100a691906114a6565b60405180910390f35b6100c960048036038101906100c491906114c1565b6108f1565b6040516100dc9796959493929190611589565b60405180910390f35b6001866040516100f59190611665565b908152602001604051809103902060009054906101000a900460ff1615610151576040517f08c379a0000000000000000000000000000000000000000000000000000000008152600401610148906116c8565b60405180910390fd5b6000858585858560405160200161016c9594939291906116e8565b60405160208183030381529060405290506000816040516020016101909190611665565b60405160208183030381529060405280519060200120905060006101b382610e61565b90506000896040516020016101c8919061177f565b604051602081830303815290604052905060006040518061010001604052808c81526020018b81526020018a81526020018981526020018881526020018781526020018481526020018381525090508060008c6040516102289190611665565b9081526020016040518091039020600082015181600001908161024b91906119bd565b50602082015181600101908161026191906119bd565b50604082015181600201908161027791906119bd565b50606082015181600301908161028d91906119bd565b5060808201518160040190816102a391906119bd565b5060a08201518160050190816102b991906119bd565b5060c08201518160060190816102cf91906119bd565b5060e08201518160070190816102e591906119bd565b509050506001808c6040516102fa9190611665565b908152602001604051809103902060006101000a81548160ff0219169083151502179055507f8e0fdadc4d79c06072bfaf16a1164e29ee1d0ff6ba077684bdeea32bd872517d8b8b8b8686604051610356959493929190611a8f565b60405180910390a15050505050505050505050565b600060018360405161037d9190611665565b908152602001604051809103902060009054906101000a900460ff166103d8576040517f08c379a00000000000000000000000000000000000000000000000000000000081526004016103cf90611b51565b60405180910390fd5b600080846040516103e99190611665565b908152602001604051809103902060405180610100016040529081600082018054610413906117d0565b80601f016020809104026020016040519081016040528092919081815260200182805461043f906117d0565b801561048c5780601f106104615761010080835404028352916020019161048c565b820191906000526020600020905b81548152906001019060200180831161046f57829003601f168201915b505050505081526020016001820180546104a5906117d0565b80601f01602080910402602001604051908101604052809291908181526020018280546104d1906117d0565b801561051e5780601f106104f35761010080835404028352916020019161051e565b820191906000526020600020905b81548152906001019060200180831161050157829003601f168201915b50505050508152602001600282018054610537906117d0565b80601f0160208091040260200160405190810160405280929190818152602001828054610563906117d0565b80156105b05780601f10610585576101008083540402835291602001916105b0565b820191906000526020600020905b81548152906001019060200180831161059357829003601f168201915b505050505081526020016003820180546105c9906117d0565b80601f01602080910402602001604051908101604052809291908181526020018280546105f5906117d0565b80156106425780601f1061061757610100808354040283529160200191610642565b820191906000526020600020905b81548152906001019060200180831161062557829003601f168201915b5050505050815260200160048201805461065b906117d0565b80601f0160208091040260200160405190810160405280929190818152602001828054610687906117d0565b80156106d45780601f106106a9576101008083540402835291602001916106d4565b820191906000526020600020905b8154815290600101906020018083116106b757829003601f168201915b505050505081526020016005820180546106ed906117d0565b80601f0160208091040260200160405190810160405280929190818152602001828054610719906117d0565b80156107665780601f1061073b57610100808354040283529160200191610766565b820191906000526020600020905b81548152906001019060200180831161074957829003601f168201915b5050505050815260200160068201805461077f906117d0565b80601f01602080910402602001604051908101604052809291908181526020018280546107ab906117d0565b80156107f85780601f106107cd576101008083540402835291602001916107f8565b820191906000526020600020905b8154815290600101906020018083116107db57829003601f168201915b50505050508152602001600782018054610811906117d0565b80601f016020809104026020016040519081016040528092919081815260200182805461083d906117d0565b801561088a5780601f1061085f5761010080835404028352916020019161088a565b820191906000526020600020905b81548152906001019060200180831161086d57829003601f168201915b5050505050815250509050826040516020016108a69190611665565b604051602081830303815290604052805190602001208160c001516040516020016108d19190611665565b604051602081830303815290604052805190602001201491505092915050565b606080606080606080606060018860405161090c9190611665565b908152602001604051809103902060009054906101000a900460ff16610967576040517f08c379a000000000000000000000000000000000000000000000000000000000815260040161095e90611b51565b60405180910390fd5b600080896040516109789190611665565b9081526020016040518091039020604051806101000160405290816000820180546109a2906117d0565b80601f01602080910402602001604051908101604052809291908181526020018280546109ce906117d0565b8015610a1b5780601f106109f057610100808354040283529160200191610a1b565b820191906000526020600020905b8154815290600101906020018083116109fe57829003601f168201915b50505050508152602001600182018054610a34906117d0565b80601f0160208091040260200160405190810160405280929190818152602001828054610a60906117d0565b8015610aad5780601f10610a8257610100808354040283529160200191610aad565b820191906000526020600020905b815481529060010190602001808311610a9057829003601f168201915b50505050508152602001600282018054610ac6906117d0565b80601f0160208091040260200160405190810160405280929190818152602001828054610af2906117d0565b8015610b3f5780601f10610b1457610100808354040283529160200191610b3f565b820191906000526020600020905b815481529060010190602001808311610b2257829003601f168201915b50505050508152602001600382018054610b58906117d0565b80601f0160208091040260200160405190810160405280929190818152602001828054610b84906117d0565b8015610bd15780601f10610ba657610100808354040283529160200191610bd1565b820191906000526020600020905b815481529060010190602001808311610bb457829003601f168201915b50505050508152602001600482018054610bea906117d0565b80601f0160208091040260200160405190810160405280929190818152602001828054610c16906117d0565b8015610c635780601f10610c3857610100808354040283529160200191610c63565b820191906000526020600020905b815481529060010190602001808311610c4657829003601f168201915b50505050508152602001600582018054610c7c906117d0565b80601f0160208091040260200160405190810160405280929190818152602001828054610ca8906117d0565b8015610cf55780601f10610cca57610100808354040283529160200191610cf5565b820191906000526020600020905b815481529060010190602001808311610cd857829003601f168201915b50505050508152602001600682018054610d0e906117d0565b80601f0160208091040260200160405190810160405280929190818152602001828054610d3a906117d0565b8015610d875780601f10610d5c57610100808354040283529160200191610d87565b820191906000526020600020905b815481529060010190602001808311610d6a57829003601f168201915b50505050508152602001600782018054610da0906117d0565b80601f0160208091040260200160405190810160405280929190818152602001828054610dcc906117d0565b8015610e195780601f10610dee57610100808354040283529160200191610e19565b820191906000526020600020905b815481529060010190602001808311610dfc57829003601f168201915b505050505081525050905080602001518160400151826060015183608001518460a001518560c001518660e00151975097509750975097509750975050919395979092949650565b606060006040518060400160405280601081526020017f303132333435363738396162636465660000000000000000000000000000000081525090506000604067ffffffffffffffff811115610eba57610eb96111b3565b5b6040519080825280601f01601f191660200182016040528015610eec5781602001600182028036833780820191505090505b50905060005b602081101561117957826004868360208110610f1157610f10611b71565b5b1a7f0100000000000000000000000000000000000000000000000000000000000000027effffffffffffffffffffffffffffffffffffffffffffffffffffffffffffff1916908060020a82049150507f0100000000000000000000000000000000000000000000000000000000000000900460ff1681518110610f9757610f96611b71565b5b60200101517f010000000000000000000000000000000000000000000000000000000000000090047f01000000000000000000000000000000000000000000000000000000000000000282600283610fef9190611bcf565b8151811061100057610fff611b71565b5b60200101907effffffffffffffffffffffffffffffffffffffffffffffffffffffffffffff1916908160001a90535082600f7f01000000000000000000000000000000000000000000000000000000000000000286836020811061106757611066611b71565b5b1a7f010000000000000000000000000000000000000000000000000000000000000002167f0100000000000000000000000000000000000000000000000000000000000000900460ff16815181106110c2576110c1611b71565b5b60200101517f010000000000000000000000000000000000000000000000000000000000000090047f0100000000000000000000000000000000000000000000000000000000000000028260028361111a9190611bcf565b60016111269190611c11565b8151811061113757611136611b71565b5b60200101907effffffffffffffffffffffffffffffffffffffffffffffffffffffffffffff1916908160001a905350808061117190611c45565b915050610ef2565b508092505050919050565b6000604051905090565b600080fd5b600080fd5b600080fd5b600080fd5b6000601f19601f8301169050919050565b7f4e487b7100000000000000000000000000000000000000000000000000000000600052604160045260246000fd5b6111eb826111a2565b810181811067ffffffffffffffff8211171561120a576112096111b3565b5b80604052505050565b600061121d611184565b905061122982826111e2565b919050565b600067ffffffffffffffff821115611249576112486111b3565b5b611252826111a2565b9050602081019050919050565b82818337600083830152505050565b600061128161127c8461122e565b611213565b90508281526020810184848401111561129d5761129c61119d565b5b6112a884828561125f565b509392505050565b600082601f8301126112c5576112c4611198565b5b81356112d584826020860161126e565b91505092915050565b60008060008060008060c087890312156112fb576112fa61118e565b5b600087013567ffffffffffffffff81111561131957611318611193565b5b61132589828a016112b0565b965050602087013567ffffffffffffffff81111561134657611345611193565b5b61135289828a016112b0565b955050604087013567ffffffffffffffff81111561137357611372611193565b5b61137f89828a016112b0565b945050606087013567ffffffffffffffff8111156113a05761139f611193565b5b6113ac89828a016112b0565b935050608087013567ffffffffffffffff8111156113cd576113cc611193565b5b6113d989828a016112b0565b92505060a087013567ffffffffffffffff8111156113fa576113f9611193565b5b61140689828a016112b0565b9150509295509295509295565b6000806040838503121561142a5761142961118e565b5b600083013567ffffffffffffffff81111561144857611447611193565b5b611454858286016112b0565b925050602083013567ffffffffffffffff81111561147557611474611193565b5b611481858286016112b0565b9150509250929050565b60008115159050919050565b6114a08161148b565b82525050565b60006020820190506114bb6000830184611497565b92915050565b6000602082840312156114d7576114d661118e565b5b600082013567ffffffffffffffff8111156114f5576114f4611193565b5b611501848285016112b0565b91505092915050565b600081519050919050565b600082825260208201905092915050565b60005b83811015611544578082015181840152602081019050611529565b60008484015250505050565b600061155b8261150a565b6115658185611515565b9350611575818560208601611526565b61157e816111a2565b840191505092915050565b600060e08201905081810360008301526115a3818a611550565b905081810360208301526115b78189611550565b905081810360408301526115cb8188611550565b905081810360608301526115df8187611550565b905081810360808301526115f38186611550565b905081810360a08301526116078185611550565b905081810360c083015261161b8184611550565b905098975050505050505050565b600081905092915050565b600061163f8261150a565b6116498185611629565b9350611659818560208601611526565b80840191505092915050565b60006116718284611634565b915081905092915050565b7f4f66666572206c657474657220494420616c7265616479206578697374730000600082015250565b60006116b2601e83611515565b91506116bd8261167c565b602082019050919050565b600060208201905081810360008301526116e1816116a5565b9050919050565b60006116f48288611634565b91506117008287611634565b915061170c8286611634565b91506117188285611634565b91506117248284611634565b91508190509695505050505050565b7f68747470733a2f2f636f6d70616e792e636f6d2f6f666665722f000000000000600082015250565b6000611769601a83611629565b915061177482611733565b601a82019050919050565b600061178a8261175c565b91506117968284611634565b915081905092915050565b7f4e487b7100000000000000000000000000000000000000000000000000000000600052602260045260246000fd5b600060028204905060018216806117e857607f821691505b6020821081036117fb576117fa6117a1565b5b50919050565b60008190508160005260206000209050919050565b60006020601f8301049050919050565b60008160020a8302905092915050565b6000600883026118667fffffffffffffffffffffffffffffffffffffffffffffffffffffffffffffffff82611826565b6118708683611826565b95508019841693508086168417925050509392505050565b6000819050919050565b6000819050919050565b60006118b76118b26118ad84611888565b611892565b611888565b9050919050565b6000819050919050565b6118d18361189c565b6118e56118dd826118be565b848454611836565b825550505050565b600090565b6118fa6118ed565b6119058184846118c8565b505050565b5b818110156119295761191e6000826118f2565b60018101905061190b565b5050565b601f82111561196e5761193f81611801565b61194884611816565b81016020851015611957578190505b61196b61196385611816565b83018261190a565b50505b505050565b60008160020a8304905092915050565b600061199460001984600802611973565b1980831691505092915050565b60006119ad8383611983565b9150826002028217905092915050565b6119c68261150a565b67ffffffffffffffff8111156119df576119de6111b3565b5b6119e982546117d0565b6119f482828561192d565b600060209050601f831160018114611a275760008415611a15578287015190505b611a1f85826119a1565b865550611a87565b601f198416611a3586611801565b60005b82811015611a5d57848901518255600182019150602085019450602081019050611a38565b86831015611a7a5784890151611a76601f891682611983565b8355505b6001600288020188555050505b505050505050565b600060a0820190508181036000830152611aa98188611550565b90508181036020830152611abd8187611550565b90508181036040830152611ad18186611550565b90508181036060830152611ae58185611550565b90508181036080830152611af98184611550565b90509695505050505050565b7f4f66666572206c657474657220494420646f6573206e6f742065786973740000600082015250565b6000611b3b601e83611515565b9150611b4682611b05565b602082019050919050565b60006020820190508181036000830152611b6a81611b2e565b9050919050565b7f4e487b7100000000000000000000000000000000000000000000000000000000600052603260045260246000fd5b7f4e487b7100000000000000000000000000000000000000000000000000000000600052601160045260246000fd5b6000611bda82611888565b9150611be583611888565b9250828202611bf381611888565b91508282048414831517611c0a57611c09611ba0565b5b5092915050565b6000611c1c82611888565b9150611c2783611888565b9250828201905080821115611c3f57611c3e611ba0565b5b92915050565b6000611c5082611888565b91507fffffffffffffffffffffffffffffffffffffffffffffffffffffffffffffffff8203611c8257611c81611ba0565b5b60018201905091905056fea264697066735822122082af49d6eda501e1c7fc17b6bb2c4b3f3c1cee637c9cf9e4b7ec1d631f1e74b264736f6c63430008150033",
    "immutableReferences": {},
    "source": "// SPDX-License-Identifier: MIT\r\npragma solidity ^0.8.0;\r\n\r\ncontract OfferLetterContract {\r\n    struct OfferLetter {\r\n        string offerLetterId;\r\n        string employer;\r\n        string candidate;\r\n        string salary;\r\n        string position;\r\n        string date;\r\n        string offerHash;\r\n        string uniqueURL;\r\n    }\r\n\r\n    mapping(string => OfferLetter) private offerLetters;\r\n    mapping(string => bool) private offerLetterExists;\r\n\r\n    event OfferLetterCreated(string offerLetterId, string employer, string candidate, string offerHash, string uniqueURL);\r\n\r\n    function createOfferLetter(\r\n        string memory offerLetterId,\r\n        string memory employer,\r\n        string memory candidate,\r\n        string memory salary,\r\n        string memory position,\r\n        string memory date\r\n    ) public {\r\n        require(!offerLetterExists[offerLetterId], \"Offer letter ID already exists\");\r\n\r\n        // Create offer hash\r\n        string memory offerDetails = string(abi.encodePacked(employer, candidate, salary, position, date));\r\n        bytes32 offerHashBytes = keccak256(abi.encodePacked(offerDetails));\r\n        string memory offerHash = toHexString(offerHashBytes);\r\n\r\n        // Generate unique URL\r\n        string memory uniqueURL = string(abi.encodePacked(\"https://company.com/offer/\", offerLetterId));\r\n\r\n        OfferLetter memory newOfferLetter = OfferLetter({\r\n            offerLetterId: offerLetterId,\r\n            employer: employer,\r\n            candidate: candidate,\r\n            salary: salary,\r\n            position: position,\r\n            date: date,\r\n            offerHash: offerHash,\r\n            uniqueURL: uniqueURL\r\n        });\r\n\r\n        offerLetters[offerLetterId] = newOfferLetter;\r\n        offerLetterExists[offerLetterId] = true;\r\n\r\n        emit OfferLetterCreated(offerLetterId, employer, candidate, offerHash, uniqueURL);\r\n    }\r\n\r\n    function queryOfferLetter(string memory offerLetterId)\r\n        public\r\n        view\r\n        returns (\r\n            string memory employer,\r\n            string memory candidate,\r\n            string memory salary,\r\n            string memory position,\r\n            string memory date,\r\n            string memory offerHash,\r\n            string memory uniqueURL\r\n        )\r\n    {\r\n        require(offerLetterExists[offerLetterId], \"Offer letter ID does not exist\");\r\n\r\n        OfferLetter memory offerLetter = offerLetters[offerLetterId];\r\n        return (\r\n            offerLetter.employer,\r\n            offerLetter.candidate,\r\n            offerLetter.salary,\r\n            offerLetter.position,\r\n            offerLetter.date,\r\n            offerLetter.offerHash,\r\n            offerLetter.uniqueURL\r\n        );\r\n    }\r\n\r\n    function verifyOfferHash(string memory offerLetterId, string memory offerHash) public view returns (bool) {\r\n        require(offerLetterExists[offerLetterId], \"Offer letter ID does not exist\");\r\n\r\n        OfferLetter memory offerLetter = offerLetters[offerLetterId];\r\n        return (keccak256(abi.encodePacked(offerLetter.offerHash)) == keccak256(abi.encodePacked(offerHash)));\r\n    }\r\n\r\n    function toHexString(bytes32 data) internal pure returns (string memory) {\r\n        bytes memory alphabet = \"0123456789abcdef\";\r\n        bytes memory str = new bytes(64);\r\n        for (uint256 i = 0; i < 32; i++) {\r\n            str[i * 2] = alphabet[uint8(data[i] >> 4)];\r\n            str[1 + i * 2] = alphabet[uint8(data[i] & 0x0f)];\r\n        }\r\n        return string(str);\r\n    }\r\n}",
    "sourcePath": "C:\\Users\\KIIT0001\\Desktop\\CertiChain\\smart-contracts\\contracts\\OfferLetterContract.sol",
    "compiler": {
        "name": "solc",
        "version": "0.8.21+commit.d9974bed.Emscripten.clang"
    },
    "schemaVersion": "3.4.16",
    "updatedAt": "2024-06-29T09:47:09.803Z",
    "networkType": "ethereum",
    "devdoc": {
        "kind": "dev",
        "methods": {},
        "version": 1
    },
    "userdoc": {
        "kind": "user",
        "methods": {},
        "version": 1
    }
}